:10000000F3C1000012C2000010C200000EC20000C6
:100010000CC200000AC2000008C2000006C20000B4
:1000200004C2000002C2000000C20000FEC10000C5
:10003000FCC10000FAC1000046C300007EC30000FE
:10004000B6C30000EEC3000026C400005EC400007A
:1000500096C40000CEC4000006C500003EC50000E6
:10006000E4C100000C943112E0C100000C940912AC
:100070000C948112DAC100000C945912D6C1000010
:10008000D4C10000D2C10000D0C10000CEC1000028
:10009000CCC10000CAC10000C8C10000C6C1000038
:1000A000C4C10000C2C10000C0C10000BEC1000048
:1000B000BCC10000BAC10000B8C100008CC700007C
:1000C000C4C70000FCC700000C9499080C94D30826
:1000D0000C940D090C9447090C9481090C94BB09EC
:1000E0000C94F509A2C10000A0C100009EC100004F
:1000F0009CC100009AC1000098C1000096C1000098
:1001000094C1000092C1000090C100008EC10000A7
:100110008CC100008AC1000088C1000086C10000B7
:1001200084C1000082C1000080C100007EC10000C7
:100130007CC100000CC5000044C500007CC5000067
:10014000B4C50000ECC5000024C600005CC6000079
:1001500094C60000CCC6000004C7000066C10000C1
:100160000C94D11262C100000C94A9120C942113BA
:100170005CC100000C94F91258C1000056C1000087
:1001800054C1000052C1000050C100004EC1000027
:100190004CC100004AC1000048C1000046C1000037
:1001A00044C1000042C1000040C100003EC1000047
:1001B0000C942F0A0C94690A0C94A30A0C94DD0A7F
:1001C0000C94170B0C94510B30C100002EC1000091
:1001D0002CC100002AC1000028C1000026C1000077
:1001E00024C1000022C10000515545525900534519
:1001F0004E4400555000444F574E0053544F50004A
:100200004F4B0D0A004354524C5F4D4F56450D0A5B
:10021000004354524C5F53544F500D0A0043545204
:100220004C5F4D4F5645544F0D0A004354524C5F9E
:100230004D4F56454F460D0A004354524C5F5749A7
:100240004E4B0D0A00504F53545F4D4F544F525F69
:10025000504F534954494F4E0D0A00504F53545F6D
:100260004D4F544F525F5354415455530D0A005053
:100270004F53545F4D4F544F525F4C494D49545367
:100280000D0A00504F53545F4D4F544F525F444935
:1002900052454354494F4E0D0A00504F53545F4D41
:1002A0004F544F525F524F4C4C494E475F5350454D
:1002B00045440D0A00504F53545F4D4F544F525F09
:1002C00049500D0A00504F53545F4443545F4C4F04
:1002D000434B0D0A00504F53545F464143544F5215
:1002E000595F44454641554C540D0A004745545FFB
:1002F0004D4F544F525F504F534954494F4E0D0A82
:10030000004745545F4D4F544F525F53544154552D
:10031000530D0A004745545F4D4F544F525F4C49AF
:100320004D4954530D0A004745545F4D4F544F52A9
:100330005F444952454354494F4E0D0A00474554C6
:100340005F4D4F544F525F524F4C4C494E475F5395
:10035000504545440D0A004745545F4D4F544F5298
:100360005F49500D0A004745545F4443545F4C4F6A
:10037000434B0D0A004745545F464143544F525981
:100380005F44454641554C540D0A007374617475C1
:100390007320757064617465207761732072616E7B
:1003A00020776974686F757420612076616C696468
:1003B00020416464720D0A007061636B6574207281
:1003C000657475726E656420616E20756E6B6E6FFC
:1003D000776E20737461747573207061636B6574DC
:1003E00020747970650D0A0011241FBECFEFDFE580
:1003F000DEBFCDBF00E00CBF12E2A0E0B0E2E6E954
:10040000FDE300E00BBF02C007900D92A831B107D9
:10041000D9F718E2A8E1B2E201C01D92AC36B107EB
:10042000E1F70E947D0F0C94C91EEACDDF93CF93B4
:100430000F92CDB7DEB78FE390E0FC018081898316
:10044000F89489810F90CF91DF910895DF93CF9336
:100450000F92CDB7DEB789838FE390E02981FC014D
:1004600020830F90CF91DF910895DF93CF9300D039
:10047000CDB7DEB780E790E089839A831B820DC0F9
:1004800089819A812FEFFC01208389819A810196CD
:1004900089839A838B818F5F8B838B81873080F3F5
:1004A0002396CDBFDEBFCF91DF910895DF93CF9329
:1004B00000D00F92CDB7DEB78A839B836C83B6DF03
:1004C00089838A819B8180599F4F2A813B81205952
:1004D0003F4FF9012081322F2C8120952323FC01ED
:1004E00020838981B3DF2496CDBFDEBFCF91DF911A
:1004F000089580E896E061E040E053E08AD080E82B
:1005000096E062E040E053E084D080E896E064E06A
:1005100040E053E07ED080E896E068E040E053E0C1
:1005200078D080E896E060E140E053E072D080E867
:1005300096E060E240E053E06CD080E896E060E452
:1005400040E053E066D080E896E060E840E053E0A9
:1005500060D080EA96E061E048E150E05AD080EA5D
:1005600096E062E048E150E054D080EA96E064E032
:1005700048E150E04ED080EA96E068E048E150E083
:1005800048D080EA96E060E148E150E042D080EA5D
:1005900096E060E448E150E03CD080EA96E060E814
:1005A00048E150E036D080E496E068E040E053E077
:1005B00030D080E496E064E040E050E02AD080E46F
:1005C00096E061E040E051E024D080E496E060E80D
:1005D00040E053E01ED080E496E060E440E050E06C
:1005E00018D080E696E068E040E053E012D080E664
:1005F00096E064E040E050E00CD080E696E060E8F1
:1006000040E053E006D080E696E060E440E050E051
:1006100000C0DF93CF9300D000D0CDB7DEB78A8380
:100620009B836C834D835E8319821EC08C81882FCF
:1006300090E02981222F30E0022E02C09595879507
:100640000A94E2F781709070882359F02A813B81E7
:100650008981882F90E04096820F931F2D81FC01A5
:10066000208389818F5F898389818830F8F28D8129
:100670009E81807091700097D1F08D819E818070F5
:100680009270009739F08A819B8105962C81FC013C
:10069000208306C08A819B8106962C81FC012083E1
:1006A0008A819B8101962C81FC01208306C08A816E
:1006B0009B8102962C81FC0120832696CDBFDEBF54
:1006C000CF91DF9108951F920F920FB60F92009075
:1006D0003B000F9211242F933F934F935F936F939F
:1006E0007F938F939F93AF93BF93EF93FF93DF938A
:1006F000CF93CDB7DEB78091182290911922009741
:1007000031F08091182290911922FC011995CF9116
:10071000DF91FF91EF91BF91AF919F918F917F9169
:100720006F915F914F913F912F910F9000923B00FD
:100730000F900FBE0F901F9018951F920F920FB63B
:100740000F9200903B000F9211242F933F934F93F1
:100750005F936F937F938F939F93AF93BF93EF9329
:10076000FF93DF93CF93CDB7DEB780911A2290919C
:100770001B22009731F080911A2290911B22FC01DC
:100780001995CF91DF91FF91EF91BF91AF919F911B
:100790008F917F916F915F914F913F912F910F902A
:1007A00000923B000F900FBE0F901F9018951F9264
:1007B0000F920FB60F9200903B000F9211242F93CF
:1007C0003F934F935F936F937F938F939F93AF93D9
:1007D000BF93EF93FF93DF93CF93CDB7DEB78091B5
:1007E0001C2290911D22009731F080911C22909143
:1007F0001D22FC011995CF91DF91FF91EF91BF91DF
:10080000AF919F918F917F916F915F914F913F91A8
:100810002F910F9000923B000F900FBE0F901F90F2
:1008200018951F920F920FB60F9200903B000F92F7
:1008300011242F933F934F935F936F937F938F93E5
:100840009F93AF93BF93EF93FF93DF93CF93CDB776
:10085000DEB780911E2290911F22009731F0809187
:100860001E2290911F22FC011995CF91DF91FF91DB
:10087000EF91BF91AF919F918F917F916F915F9118
:100880004F913F912F910F9000923B000F900FBE20
:100890000F901F9018951F920F920FB60F92009015
:1008A0003B000F9211242F933F934F935F936F93CD
:1008B0007F938F939F93AF93BF93EF93FF93DF93B8
:1008C000CF93CDB7DEB7809120229091212200975F
:1008D00031F08091202290912122FC011995CF9135
:1008E000DF91FF91EF91BF91AF919F918F917F9198
:1008F0006F915F914F913F912F910F9000923B002C
:100900000F900FBE0F901F9018951F920F920FB669
:100910000F9200903B000F9211242F933F934F931F
:100920005F936F937F938F939F93AF93BF93EF9357
:10093000FF93DF93CF93CDB7DEB7809122229091C2
:100940002322009731F08091222290912322FC01F2
:100950001995CF91DF91FF91EF91BF91AF919F9149
:100960008F917F916F915F914F913F912F910F9058
:1009700000923B000F900FBE0F901F9018951F9292
:100980000F920FB60F9200903B000F9211242F93FD
:100990003F934F935F936F937F938F939F93AF9307
:1009A000BF93EF93FF93DF93CF93CDB7DEB78091E3
:1009B000242290912522009731F080912422909159
:1009C0002522FC011995CF91DF91FF91EF91BF9105
:1009D000AF919F918F917F916F915F914F913F91D7
:1009E0002F910F9000923B000F900FBE0F901F9021
:1009F00018951F920F920FB60F9200903B000F9226
:100A000011242F933F934F935F936F937F938F9313
:100A10009F93AF93BF93EF93FF93DF93CF93CDB7A4
:100A2000DEB78091262290912722009731F08091A5
:100A3000262290912722FC011995CF91DF91FF91F9
:100A4000EF91BF91AF919F918F917F916F915F9146
:100A50004F913F912F910F9000923B000F900FBE4E
:100A60000F901F9018951F920F920FB60F92009043
:100A70003B000F9211242F933F934F935F936F93FB
:100A80007F938F939F93AF93BF93EF93FF93DF93E6
:100A9000CF93CDB7DEB7809128229091292200977D
:100AA00031F08091282290912922FC011995CF9153
:100AB000DF91FF91EF91BF91AF919F918F917F91C6
:100AC0006F915F914F913F912F910F9000923B005A
:100AD0000F900FBE0F901F9018951F920F920FB698
:100AE0000F9200903B000F9211242F933F934F934E
:100AF0005F936F937F938F939F93AF93BF93EF9386
:100B0000FF93DF93CF93CDB7DEB780912A229091E8
:100B10002B22009731F080912A2290912B22FC0108
:100B20001995CF91DF91FF91EF91BF91AF919F9177
:100B30008F917F916F915F914F913F912F910F9086
:100B400000923B000F900FBE0F901F9018951F92C0
:100B50000F920FB60F9200903B000F9211242F932B
:100B60003F934F935F936F937F938F939F93AF9335
:100B7000BF93EF93FF93DF93CF93CDB7DEB7809111
:100B80002C2290912D22009731F080912C2290916F
:100B90002D22FC011995CF91DF91FF91EF91BF912B
:100BA000AF919F918F917F916F915F914F913F9105
:100BB0002F910F9000923B000F900FBE0F901F904F
:100BC00018951F920F920FB60F9200903B000F9254
:100BD00011242F933F934F935F936F937F938F9342
:100BE0009F93AF93BF93EF93FF93DF93CF93CDB7D3
:100BF000DEB780912E2290912F22009731F08091C4
:100C00002E2290912F22FC011995CF91DF91FF9117
:100C1000EF91BF91AF919F918F917F916F915F9174
:100C20004F913F912F910F9000923B000F900FBE7C
:100C30000F901F9018951F920F920FB60F92009071
:100C40003B000F9211242F933F934F935F936F9329
:100C50007F938F939F93AF93BF93EF93FF93DF9314
:100C6000CF93CDB7DEB7809130229091312200979B
:100C700031F08091302290913122FC011995CF9171
:100C8000DF91FF91EF91BF91AF919F918F917F91F4
:100C90006F915F914F913F912F910F9000923B0088
:100CA0000F900FBE0F901F9018951F920F920FB6C6
:100CB0000F9200903B000F9211242F933F934F937C
:100CC0005F936F937F938F939F93AF93BF93EF93B4
:100CD000FF93DF93CF93CDB7DEB78091322290910F
:100CE0003322009731F08091322290913322FC011F
:100CF0001995CF91DF91FF91EF91BF91AF919F91A6
:100D00008F917F916F915F914F913F912F910F90B4
:100D100000923B000F900FBE0F901F9018951F92EE
:100D20000F920FB60F9200903B000F9211242F9359
:100D30003F934F935F936F937F938F939F93AF9363
:100D4000BF93EF93FF93DF93CF93CDB7DEB780913F
:100D5000342290913522009731F080913422909185
:100D60003522FC011995CF91DF91FF91EF91BF9151
:100D7000AF919F918F917F916F915F914F913F9133
:100D80002F910F9000923B000F900FBE0F901F907D
:100D900018951F920F920FB60F9200903B000F9282
:100DA00011242F933F934F935F936F937F938F9370
:100DB0009F93AF93BF93EF93FF93DF93CF93CDB701
:100DC000DEB78091362290913722009731F08091E2
:100DD000362290913722FC011995CF91DF91FF9136
:100DE000EF91BF91AF919F918F917F916F915F91A3
:100DF0004F913F912F910F9000923B000F900FBEAB
:100E00000F901F9018951F920F920FB60F9200909F
:100E10003B000F9211242F933F934F935F936F9357
:100E20007F938F939F93AF93BF93EF93FF93DF9342
:100E3000CF93CDB7DEB780913822909139220097B9
:100E400031F08091382290913922FC011995CF918F
:100E5000DF91FF91EF91BF91AF919F918F917F9122
:100E60006F915F914F913F912F910F9000923B00B6
:100E70000F900FBE0F901F9018951F920F920FB6F4
:100E80000F9200903B000F9211242F933F934F93AA
:100E90005F936F937F938F939F93AF93BF93EF93E2
:100EA000FF93DF93CF93CDB7DEB780913A22909135
:100EB0003B22009731F080913A2290913B22FC0135
:100EC0001995CF91DF91FF91EF91BF91AF919F91D4
:100ED0008F917F916F915F914F913F912F910F90E3
:100EE00000923B000F900FBE0F901F9018951F921D
:100EF0000F920FB60F9200903B000F9211242F9388
:100F00003F934F935F936F937F938F939F93AF9391
:100F1000BF93EF93FF93DF93CF93CDB7DEB780916D
:100F20003C2290913D22009731F080913C2290919B
:100F30003D22FC011995CF91DF91FF91EF91BF9177
:100F4000AF919F918F917F916F915F914F913F9161
:100F50002F910F9000923B000F900FBE0F901F90AB
:100F600018951F920F920FB60F9200903B000F92B0
:100F700011242F933F934F935F936F937F938F939E
:100F80009F93AF93BF93EF93FF93DF93CF93CDB72F
:100F9000DEB780913E2290913F22009731F0809100
:100FA0003E2290913F22FC011995CF91DF91FF9154
:100FB000EF91BF91AF919F918F917F916F915F91D1
:100FC0004F913F912F910F9000923B000F900FBED9
:100FD0000F901F9018951F920F920FB60F920090CE
:100FE0003B000F9211242F933F934F935F936F9386
:100FF0007F938F939F93AF93BF93EF93FF93DF9371
:10100000CF93CDB7DEB780914022909141220097D7
:1010100031F08091402290914122FC011995CF91AD
:10102000DF91FF91EF91BF91AF919F918F917F9150
:101030006F915F914F913F912F910F9000923B00E4
:101040000F900FBE0F901F9018951F920F920FB622
:101050000F9200903B000F9211242F933F934F93D8
:101060005F936F937F938F939F93AF93BF93EF9310
:10107000FF93DF93CF93CDB7DEB78091422290915B
:101080004322009731F08091422290914322FC014B
:101090001995CF91DF91FF91EF91BF91AF919F9102
:1010A0008F917F916F915F914F913F912F910F9011
:1010B00000923B000F900FBE0F901F9018951F924B
:1010C0000F920FB60F9200903B000F9211242F93B6
:1010D0003F934F935F936F937F938F939F93AF93C0
:1010E000BF93EF93FF93DF93CF93CDB7DEB780919C
:1010F000442290914522009731F0809144229091B2
:101100004522FC011995CF91DF91FF91EF91BF919D
:10111000AF919F918F917F916F915F914F913F918F
:101120002F910F9000923B000F900FBE0F901F90D9
:1011300018951F920F920FB60F9200903B000F92DE
:1011400011242F933F934F935F936F937F938F93CC
:101150009F93AF93BF93EF93FF93DF93CF93CDB75D
:10116000DEB78091462290914722009731F080911E
:10117000462290914722FC011995CF91DF91FF9172
:10118000EF91BF91AF919F918F917F916F915F91FF
:101190004F913F912F910F9000923B000F900FBE07
:1011A0000F901F9018951F920F920FB60F920090FC
:1011B0003B000F9211242F933F934F935F936F93B4
:1011C0007F938F939F93AF93BF93EF93FF93DF939F
:1011D000CF93CDB7DEB780914822909149220097F6
:1011E00031F08091482290914922FC011995CF91CC
:1011F000DF91FF91EF91BF91AF919F918F917F917F
:101200006F915F914F913F912F910F9000923B0012
:101210000F900FBE0F901F9018951F920F920FB650
:101220000F9200903B000F9211242F933F934F9306
:101230005F936F937F938F939F93AF93BF93EF933E
:10124000FF93DF93CF93CDB7DEB780914A22909181
:101250004B22009731F080914A2290914B22FC0161
:101260001995CF91DF91FF91EF91BF91AF919F9130
:101270008F917F916F915F914F913F912F910F903F
:1012800000923B000F900FBE0F901F9018951F9279
:101290000F920FB60F9200903B000F9211242F93E4
:1012A0003F934F935F936F937F938F939F93AF93EE
:1012B000BF93EF93FF93DF93CF93CDB7DEB78091CA
:1012C0004C2290914D22009731F080914C229091C8
:1012D0004D22FC011995CF91DF91FF91EF91BF91C4
:1012E000AF919F918F917F916F915F914F913F91BE
:1012F0002F910F9000923B000F900FBE0F901F9008
:1013000018951F920F920FB60F9200903B000F920C
:1013100011242F933F934F935F936F937F938F93FA
:101320009F93AF93BF93EF93FF93DF93CF93CDB78B
:10133000DEB780914E2290914F22009731F080913C
:101340004E2290914F22FC011995CF91DF91FF9190
:10135000EF91BF91AF919F918F917F916F915F912D
:101360004F913F912F910F9000923B000F900FBE35
:101370000F901F9018951F920F920FB60F9200902A
:101380003B000F9211242F933F934F935F936F93E2
:101390007F938F939F93AF93BF93EF93FF93DF93CD
:1013A000CF93CDB7DEB78091502290915122009714
:1013B00031F08091502290915122FC011995CF91EA
:1013C000DF91FF91EF91BF91AF919F918F917F91AD
:1013D0006F915F914F913F912F910F9000923B0041
:1013E0000F900FBE0F901F9018951F920F920FB67F
:1013F0000F9200903B000F9211242F933F934F9335
:101400005F936F937F938F939F93AF93BF93EF936C
:10141000FF93DF93CF93CDB7DEB7809152229091A7
:101420005322009731F08091522290915322FC0177
:101430001995CF91DF91FF91EF91BF91AF919F915E
:101440008F917F916F915F914F913F912F910F906D
:1014500000923B000F900FBE0F901F9018951F92A7
:101460000F920FB60F9200903B000F9211242F9312
:101470003F934F935F936F937F938F939F93AF931C
:10148000BF93EF93FF93DF93CF93CDB7DEB78091F8
:10149000542290915522009731F0809154229091DE
:1014A0005522FC011995CF91DF91FF91EF91BF91EA
:1014B000AF919F918F917F916F915F914F913F91EC
:1014C0002F910F9000923B000F900FBE0F901F9036
:1014D00018951F920F920FB60F9200903B000F923B
:1014E00011242F933F934F935F936F937F938F9329
:1014F0009F93AF93BF93EF93FF93DF93CF93CDB7BA
:10150000DEB78091562290915722009731F080915A
:10151000562290915722FC011995CF91DF91FF91AE
:10152000EF91BF91AF919F918F917F916F915F915B
:101530004F913F912F910F9000923B000F900FBE63
:101540000F901F9018951F920F920FB60F92009058
:101550003B000F9211242F933F934F935F936F9310
:101560007F938F939F93AF93BF93EF93FF93DF93FB
:10157000CF93CDB7DEB78091582290915922009732
:1015800031F08091582290915922FC011995CF9108
:10159000DF91FF91EF91BF91AF919F918F917F91DB
:1015A0006F915F914F913F912F910F9000923B006F
:1015B0000F900FBE0F901F9018951F920F920FB6AD
:1015C0000F9200903B000F9211242F933F934F9363
:1015D0005F936F937F938F939F93AF93BF93EF939B
:1015E000FF93DF93CF93CDB7DEB780915A229091CE
:1015F0005B22009731F080915A2290915B22FC018E
:101600001995CF91DF91FF91EF91BF91AF919F918C
:101610008F917F916F915F914F913F912F910F909B
:1016200000923B000F900FBE0F901F9018951F92D5
:101630000F920FB60F9200903B000F9211242F9340
:101640003F934F935F936F937F938F939F93AF934A
:10165000BF93EF93FF93DF93CF93CDB7DEB7809126
:101660005C2290915D22009731F080915C229091F4
:101670005D22FC011995CF91DF91FF91EF91BF9110
:10168000AF919F918F917F916F915F914F913F911A
:101690002F910F9000923B000F900FBE0F901F9064
:1016A00018951F920F920FB60F9200903B000F9269
:1016B00011242F933F934F935F936F937F938F9357
:1016C0009F93AF93BF93EF93FF93DF93CF93CDB7E8
:1016D000DEB780915E2290915F22009731F0809179
:1016E0005E2290915F22FC011995CF91DF91FF91CD
:1016F000EF91BF91AF919F918F917F916F915F918A
:101700004F913F912F910F9000923B000F900FBE91
:101710000F901F901895DF93CF930F920F92CDB734
:10172000DEB789839A8389819A81FC018481282F7D
:10173000206189819A81FC0124830F900F90CF91C1
:10174000DF910895DF93CF93CDB7DEB72797CDBF55
:10175000DEBF89839A836B837C834D835E832F8373
:101760009B818D81982B8F81882311F088E001C0A7
:1017700080E0292F282B89819A81FC0125832796D7
:10178000CDBFDEBFCF91DF910895DF93CF930F924E
:101790000F92CDB7DEB789839A8389819A81FC0144
:1017A0008481282F286089819A81FC0124830F90ED
:1017B0000F90CF91DF910895DF93CF9300D00F92D8
:1017C000CDB7DEB789839A836B837C8389819A81C5
:1017D000FC018581982F9F738B81292F282B89816C
:1017E0009A81FC0125832496CDBFDEBFCF91DF9186
:1017F0000895DF93CF930F920F92CDB7DEB7898311
:101800009A8389819A81FC018181882F90E080727E
:10181000907021E0009709F420E0822F0F900F9044
:10182000CF91DF910895DF93CF930F920F92CDB7B1
:10183000DEB789839A8389819A81FC018181882F0F
:1018400090E08078907021E0009709F420E0822FEA
:101850000F900F90CF91DF910895DF93CF93CDB785
:10186000DEB780E894E8AEE1B0E0BC01CD01CF91F5
:10187000DF910895DF93CF930F92CDB7DEB7198232
:10188000ECDFDC01CB012981222F30E0022E04C0E5
:10189000B695A795979587950A94D2F7BC01CD0187
:1018A0000F90CF91DF910895DF93CF93CDB7DEB73F
:1018B000E1DFDC01CB01BC01CD01CF91DF910895C7
:1018C000DF93CF93CDB7DEB7EFDFDC01CB01BC01F7
:1018D000CD01CF91DF910895DF93CF930F920F92B7
:1018E000CDB7DEB789839A8389819A8128E0803ACF
:1018F000920729F483E090E060E10E94560289811A
:101900009A8128E0803B920729F483E090E060E22E
:101910000E94560289819A8129E0803A920729F42F
:1019200084E090E060E10E94560289819A8129E07A
:10193000803B920729F484E090E060E20E94560226
:1019400089819A812AE0803A920729F485E090E023
:1019500060E10E94560289819A812BE0803A9207C9
:1019600029F486E090E060E10E94560289819A8124
:101970002BE0803B920729F486E090E060E20E9431
:1019800056020F900F90CF91DF910895CF92DF9282
:10199000EF92FF920F931F93DF93CF9300D00F929C
:1019A000CDB7DEB789839A836B837C8389819A81E3
:1019B00093DF89819A8160E070E0FEDE8B819C81FB
:1019C000DC0114964D915C9115978B819C81FC01F3
:1019D000268137818B819C81DC011896EC9189816D
:1019E0009A81BA01A9012E2FADDE8B819C81FC0169
:1019F000C080D180E280F38063DF8B019C0189810C
:101A00009A81B701A6014AD089819A81BEDE898177
:101A10009A8181DE2496CDBFDEBFCF91DF911F91E9
:101A20000F91FF90EF90DF90CF900895DF93CF93C9
:101A300000D0CDB7DEB789839A836B83000089819C
:101A40009A81D7DE982F81E089278823C1F7898181
:101A50009A812B81FC01208380E090E02396CDBF0A
:101A6000DEBFCF91DF910895DF93CF930F920F9256
:101A7000CDB7DEB789839A83000089819A81D3DE4E
:101A8000982F81E089278823C1F789819A81FC01F9
:101A900080810F900F90CF91DF910895EF92FF9288
:101AA0000F931F93DF93CF93CDB7DEB76F97CDBF63
:101AB000DEBF8E8B9F8B488F598F6A8F7B8F0C8FE9
:101AC0001D8F2E8F3F8F8C8D9D8DAE8DBF8D689419
:101AD00012F8B695A795979587951694D1F78E87A6
:101AE0009F87A88BB98B8C8D9D8DAE8DBF8D072E5A
:101AF00076E1B695A795979587957A95D1F7702D4C
:101B00008A879B87AC87BD878E899F89FC018481EA
:101B1000882F90E0847090700097C1F48E859F8527
:101B2000A889B989B695A795979587958E879F8738
:101B3000A88BB98B8A859B85AC85BD85B695A79505
:101B4000979587958A879B87AC87BD87288D398D28
:101B50004A8D5B8D8E859F85A889B98982179307E9
:101B6000A407B50768F0288D398D4A8D5B8D8A856D
:101B70009B85AC85BD85281739074A075B0710F49C
:101B800080E03CC18E899F89FC018481882F90E090
:101B900084709070009761F4888D998DAA8DBB8DAB
:101BA000880F991FAA1FBB1F888F998FAA8FBB8F81
:101BB0008FEF90E0A0E0B0E08E839F83A887B98785
:101BC0008C8D9D8DAE8DBF8D288D398D4A8D5B8D11
:101BD000BC01CD010E94A61B2A8B3B8B4C8B5D8BDD
:101BE00089EF898328C02A893B894C895D898E8148
:101BF0009F81A885B985281739074A075B07F8F040
:101C00008E819F81A885B985880F991FAA1FBB1F48
:101C10008E839F83A887B98789818D3F4CF48E81FD
:101C20009F81A885B98581608E839F83A887B987A6
:101C300089818F5F898389818730ACF201C0000080
:101C4000898188230CF088C0888D998DAA8DBB8DE1
:101C5000880F991FAA1FBB1F880F991FAA1FBB1FA0
:101C6000880F991FAA1FBB1F2C8D3D8D4E8D5F8D38
:101C700079018A01E81AF90A0A0B1B0BD801C7017E
:101C80008C8F9D8FAE8FBF8F89818E3F84F5898128
:101C9000992787FD90952DEF3FEF281B390B8C8DF1
:101CA0009D8DAE8DBF8D7C018D0104C0EE0CFF1C9F
:101CB000001F111F2A95D2F7A8019701888D998DD1
:101CC000AA8DBB8DB695A79597958795820F931F83
:101CD000A41FB51F288D398D4A8D5B8DBC01CD01A8
:101CE0000E94A61B2A833B834C835D836EC089813F
:101CF000992787FD90959C012D5F3F4F888D998D89
:101D0000AA8DBB8D04C0880F991FAA1FBB1F2A95DF
:101D1000D2F7888F998FAA8FBB8F888D998DAA8DC6
:101D2000BB8D9C01AD0156954795379527958C8DB8
:101D30009D8DAE8DBF8D820F931FA41FB51F288D63
:101D4000398D4A8D5B8DBC01CD010E94A61B2A8373
:101D50003B834C835D8339C08981992787FD9095AA
:101D60009C012D5F3F4F888D998DAA8DBB8D04C03E
:101D7000880F991FAA1FBB1F2A95D2F7888F998FAA
:101D8000AA8FBB8F888D998DAA8DBB8D9C01AD01CB
:101D900056954795379527958C8D9D8DAE8DBF8D2A
:101DA000820F931FA41FB51F288D398D4A8D5B8D1F
:101DB000BC01CD010E94A61BDA01C9010197A1094E
:101DC000B1098A839B83AC83BD838A819B81AC816B
:101DD000BD81892F9A2FAB2FBB27982F9F708981A8
:101DE0008295807F292F282B8E899F89FC0127834C
:101DF0002A818E899F89FC01268381E06F96CDBF61
:101E0000DEBFCF91DF911F910F91FF90EF9008956A
:101E1000CF93DF93DC01FB01262F9491992351F09E
:101E2000ED019993DE0131968E2F821B94919923B7
:101E3000C1F701C080E01C92DF91CF9108958F928D
:101E40009F92AF92BF92CF92DF92EF92FF920F9349
:101E50001F93DF93CF93CDB7DEB7A897CDBFDEBF7B
:101E60005C0103E411E20F2EFDE4CF2EF1E2DF2E40
:101E7000F02D0F2EFAE08F2E9924F02D800E911E5A
:101E80007E010894E11CF11CD8016D917D918D01BA
:101E9000C701BEDF482FC501B70150E00E94E51B16
:101EA000282F392F2115310589F4F70101900020E1
:101EB000E9F7CF018E199F09A80EB91ED601ED9141
:101EC000FC911197309711F0C5011995E2E0F0E00F
:101ED000CE0EDF1E08151905B9F6A896CDBFDEBFD8
:101EE000CF91DF911F910F91FF90EF90DF90CF90F6
:101EF000BF90AF909F908F900895DF93CF9300D0C5
:101F0000CDB7DEB70E9435020E947902E0EAF0E028
:101F100087E0828378948281816082838DE891E278
:101F2000B5D183EB91E2B2D187E591E2AFD189EDF2
:101F300091E2ACD10E94A218DE011196EFEFF1E21E
:101F400083E001900D928150E1F769817A818B8164
:101F50000E940019A3D090E02396CDBFDEBFCF91A1
:101F6000DF910895009719F480E090E008950895B6
:101F7000CF92DF92FF920F931F93CF93DF938C0149
:101F8000F62EFC01C0A0D1A0C62FD0E060E0EADFB1
:101F90008C179D0710F0FF2031F4F801868D978D86
:101FA00080A391A305C0CC0DDD1DF801C0A3D1A372
:101FB0008C2D9D2DDF91CF911F910F91FF90DF9080
:101FC000CF900895DC015E96ED91FC915F971192A0
:101FD0005E96ED93FC935F97089528E0803B92070F
:101FE000F1F028E0813B920728F428E0803A92073C
:101FF00099F409C029E0803A920741F029E0803B3A
:10200000920751F406C023E331E20BC02BE331E227
:1020100008C02FE331E205C020E030E002C027E332
:1020200031E2822F932F0895CF93DF93EC01009735
:1020300091F12E893F898C899D892817390759F19B
:10204000F89488819981C9DFFC018081918121E028
:1020500030E02A8F3B8F2B852223C1F0E22FE695BB
:10206000E695E695F0E0F096EE0FFF1FE295F2950B
:10207000F07FFE27E07FFE27277041E050E0BA01A5
:1020800002C0660F771F2A95E2F76583EE89FF8904
:102090006081CCDC7894DF91CF9108951F93CF932A
:1020A000DF9310E0C0E6D2E2E12FF0E0EE0FFF1F79
:1020B000EC0FFD1F0190F081E02D309769F024892D
:1020C0003589868997892817390731F0828D938D54
:1020D000009711F4CF01A8DF1F5F143028F310E040
:1020E000E3CFDC018D919C9178DF009789F0DC01D2
:1020F0001296ED91FC911397EE0FFF1FE05AFD4DE4
:1021000081E0208131812115310519F480E00895A5
:1021100080E00895CF92DF92EF92FF920F931F938A
:10212000CF93DF93EC017B018A01DBDF8823B1F1E0
:10213000CE0161E017DF8017910798F12C893D8966
:10214000CF84D888888D998DC80ED91EC21AD30A1B
:10215000C016D10698F4822F932F6E2D7F2D4C2D13
:102160005D2D0E94F21B8F8598898C8B9D8BEC0CCA
:10217000FD1CC8018C199D096C0101C068018C8986
:102180009D896E2D7F2D4C2D5D2D0E94F21B8C891B
:102190009D89C80ED91ECC8ADD8A05C000E010E0FA
:1021A00002C000E010E0802F912FDF91CF911F91AE
:1021B0000F91FF90EF90DF90CF900895E62FF72FCB
:1021C000DF010D900020E9F7AD01415050404E1B5A
:1021D0005F0BA0CF1F93CF93DF93EC01162F81DF0E
:1021E000882381F0EC89FD891193EC8BFD8B8F8521
:1021F0009889288D398D280F391F2E173F0710F425
:102200008C8B9D8BDF91CF911F9108950F931F931E
:10221000DF93CF93CDB7DEB72997CDBFDEBF8C015B
:10222000FC0182819381A481B58189839A83AB83E8
:10223000BC83868197818D839E83808591858F83E2
:1022400098878285898780819181C7DEFC018081A2
:102250009181F801278530892115310551F0248BB2
:10226000358B268B378B248D358D268F378F20A38A
:1022700031A3BE016F5F7F4F89DB81E02996CDBF1F
:10228000DEBFCF91DF911F910F9108950F931F93A0
:10229000CF93DF93EC010097B1F1888199819DDEA6
:1022A000DC0112960C911297043079F110E0F801DC
:1022B000EE0FFF1FE05AFD4D80819181009739F5A7
:1022C000CE01A4DF882329F18881998186DEDC0193
:1022D000ED91FC9183818F7C8061838388819981DA
:1022E0007CDEDC01ED91FC9111978381837F84601A
:1022F0008383F801EE0FFF1FE05AFD4DC083D183A9
:10230000789481E007C080E005C080E003C080E0F1
:1023100001C080E0DF91CF911F910F910895CF937D
:10232000DF93E82FF0E0EE0FFF1FE05AFD4DC08174
:10233000D1818F8598894E895F89481B590B288DDB
:10234000398D4217530710F08E8B9F8BEB85EE2350
:10235000B9F02E2F277081E090E002C0880F991FFE
:102360002A95E2F7E695E695E695F0E0F096EE0F11
:10237000FF1FE295F295F07FFE27E07FFE2787831F
:10238000ED85FE85309721F0AE89BF898C91199536
:102390008E899F8901968E8B9F8B1A8E1B8EDF9163
:1023A000CF9108951F93CF93DF93E82FF0E0EE0FC6
:1023B000FF1FE05AFD4DC081D181888199810DDEDA
:1023C000FC018081918150DB182F8C85882319F0C6
:1023D000CE01612FFFDE8C8D9D8D009781F0EE8DFB
:1023E000FF8D1193EE8FFF8F8C8D9D8DE81BF90B68
:1023F0002CA13DA1E217F30710F08E8F9F8FEAA169
:10240000FBA1309711F0812F1995DF91CF911F918A
:1024100008951F920F920FB60F920BB60F921124D0
:102420002F933F934F935F936F937F938F939F93DC
:10243000AF93BF93EF93FF9380E071DFFF91EF9134
:10244000BF91AF919F918F917F916F915F914F91CC
:102450003F912F910F900BBE0F900FBE0F901F90CA
:1024600018951F920F920FB60F920BB60F92112470
:102470002F933F934F935F936F937F938F939F938C
:10248000AF93BF93EF93FF9380E08CDFFF91EF91C9
:10249000BF91AF919F918F917F916F915F914F917C
:1024A0003F912F910F900BBE0F900FBE0F901F907A
:1024B00018951F920F920FB60F920BB60F92112420
:1024C0002F933F934F935F936F937F938F939F933C
:1024D000AF93BF93EF93FF9381E021DFFF91EF91E3
:1024E000BF91AF919F918F917F916F915F914F912C
:1024F0003F912F910F900BBE0F900FBE0F901F902A
:1025000018951F920F920FB60F920BB60F921124CF
:102510002F933F934F935F936F937F938F939F93EB
:10252000AF93BF93EF93FF9381E03CDFFF91EF9177
:10253000BF91AF919F918F917F916F915F914F91DB
:102540003F912F910F900BBE0F900FBE0F901F90D9
:1025500018951F920F920FB60F920BB60F9211247F
:102560002F933F934F935F936F937F938F939F939B
:10257000AF93BF93EF93FF9382E0D1DEFF91EF9192
:10258000BF91AF919F918F917F916F915F914F918B
:102590003F912F910F900BBE0F900FBE0F901F9089
:1025A00018951F920F920FB60F920BB60F9211242F
:1025B0002F933F934F935F936F937F938F939F934B
:1025C000AF93BF93EF93FF9382E0ECDEFF91EF9127
:1025D000BF91AF919F918F917F916F915F914F913B
:1025E0003F912F910F900BBE0F900FBE0F901F9039
:1025F00018951F920F920FB60F920BB60F921124DF
:102600002F933F934F935F936F937F938F939F93FA
:10261000AF93BF93EF93FF9383E081DEFF91EF9140
:10262000BF91AF919F918F917F916F915F914F91EA
:102630003F912F910F900BBE0F900FBE0F901F90E8
:1026400018951F920F920FB60F920BB60F9211248E
:102650002F933F934F935F936F937F938F939F93AA
:10266000AF93BF93EF93FF9383E09CDEFF91EF91D5
:10267000BF91AF919F918F917F916F915F914F919A
:102680003F912F910F900BBE0F900FBE0F901F9098
:102690001895CF92DF92EF92FF920F931F93DF93E3
:1026A000CF93CDB7DEB72D97CDBFDEBF8C017E01B6
:1026B0000894E11CF11CCC24DD246894C2F8CC0EF3
:1026C000DD1E13C08F0181918032E1F3C8010E94A9
:1026D000C81BF70181937F01843610F00F5F1F4FF5
:1026E000EC14FD0441F00E5F1F4FF8018081803231
:1026F00069F73196E7CF1886198684E690E08C87D3
:102700009D8769817A818B81AE014C5F5F4FD2D406
:102710002D96CDBFDEBFCF91DF911F910F91FF901E
:10272000EF90DF90CF900895CF92DF92EF92FF92DB
:102730000F931F93DF93CF93CDB7DEB72D97CDBF08
:10274000DEBF8C017E010894E11CF11CCC24DD2449
:102750006894C2F8CC0EDD1E13C08F0181918032C7
:10276000E1F3C8010E94C81BF70181937F01843601
:1027700010F00F5F1F4FEC14FD0441F00E5F1F4F70
:10278000F8018081803269F73196E7CF81E090E0EF
:102790008887998784E690E08C879D8769817A8114
:1027A0008B81AE014C5F5F4F85D42D96CDBFDEBFD0
:1027B000CF91DF911F910F91FF90EF90DF90CF901D
:1027C0000895CF92DF92EF92FF920F931F93DF93C2
:1027D000CF93CDB7DEB72D97CDBFDEBF8C017E0185
:1027E0000894E11CF11CCC24DD246894C2F8CC0EC2
:1027F000DD1E12C08F0181918032E1F3C801C8D77C
:10280000F70181937F01843610F00F5F1F4FEC14A6
:10281000FD0441F00E5F1F4FF8018081803271F797
:102820003196E8CF81E090E08887998784E690E050
:102830008C879D8769817A818B81AE014C5F5F4F68
:1028400039D42D96CDBFDEBFCF91DF911F910F916F
:10285000FF90EF90DF90CF900895CF92DF92EF92AC
:10286000FF920F931F93DF93CF9300D0CDB7DEB7C6
:102870008C017E010894E11CF11CCC24DD246894B9
:10288000C2F8CC0EDD1E12C08F0181918032E1F3BF
:10289000C8017ED7F70181937F01843610F00F5F66
:1028A0001F4FEC14FD0441F00E5F1F4FF8018081B3
:1028B000803271F73196E8CF69817A818B81A0D41B
:1028C0002396CDBFDEBFCF91DF911F910F91FF9077
:1028D000EF90DF90CF9008950895CF93DF938230EB
:1028E00089F4F8948BE695E2809373219093742198
:1028F000809375219093762180937721909378210E
:1029000078940DC08D3059F4C7E5D1E2CE015ADB81
:1029100081E080936822CE0160E02ADB90DADF91CB
:10292000CF9108950895DF93CF9300D0CDB7DEB750
:1029300089836A837B838A819B810296FC01108252
:102940008A819B8101962981222F30E02F7030707F
:102950002E5F3D4DF9012081FC0120838981829504
:102960008F7089838981882F90E08F7090708E5F3F
:102970009D4DFC018081282F8A819B81FC01208351
:102980002396CDBFDEBFCF91DF910895AF92BF9266
:10299000CF92DF92FF920F931F93DF93CF93CDB728
:1029A000DEB7C456D040CDBFDEBF8C01F89483EBB8
:1029B00091E260E070E202DCD80158967C91589771
:1029C000772389F1F02EE02FF12F00E0CE01019660
:1029D0002DE731E210E2619160955C01A00EB11C1F
:1029E000462F42954F706901C40ED11CD6014C91FF
:1029F000D5014C93402F4F5F5C01A40EB11C6F704A
:102A0000A901460F511DDA014C91D5014C93402F7D
:102A10004E5FDC01A40FB11D1C930D5F4E2F4F19AB
:102A20004717C8F201C000E0BE016F5F7F4FFB0196
:102A3000E00FF11D8DE080830F5FFB01E00FF11DC2
:102A40008AE080830F5FFB01E00FF11D108283EBB2
:102A500091E2B4DB7894CC59DF4FCDBFDEBFCF918C
:102A6000DF911F910F91FF90DF90CF90BF90AF90BB
:102A700008950F931F93DF93CF93CDB7DEB7C4565E
:102A8000D040CDBFDEBF482F50E060918B227091C7
:102A90008C22640F751F60938B2270938C2220917F
:102AA0008D2230918E222330310509F467C0243005
:102AB000310540F42130310531F12230310508F083
:102AC00042C00DC02530310509F4AFC025303105B5
:102AD00008F479C02630310509F02EC1CFC08093AB
:102AE00069222AE632E220938F2230939022809549
:102AF00080937E2210927F2281E090E080938D224D
:102B000090938E2219C1E0918F22F09190228193AF
:102B1000E0938F22F09390228095809381228B50B6
:102B200080938022863028F083EB91E263E170E2AB
:102B300045DB80918D2290918E22019680938D228B
:102B400090938E22F9C0E0918F22F0919022819390
:102B5000E0938F22F093902280958093822223E04D
:102B600030E020938D2230938E22803209F4E4C02D
:102B700083EB91E26EE370E221DBDEC020918F22D5
:102B800030919022F9018193E0938F22F09390226B
:102B900082E22E36380709F0CFC080916E228095F0
:102BA0008093832280916D228095809384228091EE
:102BB0006C2280958093852284E090E080938D2222
:102BC00090938E22B9C020918F2230919022F901EA
:102BD0008193E0938F22F093902292E2213739077C
:102BE000A9F480916F228095809386228091702233
:102BF000809580938722809171228095809388228E
:102C000085E090E080938D2290938E2280918022A7
:102C1000882309F091C080918D2290918E22019697
:102C200080938D2290938E2287C0E0918F22F09125
:102C300090228193E0938F22F09390222091802222
:102C4000822F90E08E589D4DE817F90709F074C067
:102C5000222369F0E2E7F2E2CF0101962150820FD0
:102C6000911D219120952683E817F907D1F786E079
:102C700090E080938D2290938E225EC0E0918F220F
:102C8000F09190228193E0938F22F0939022641B25
:102C9000750B60938B2270938C2220918122822F5E
:102CA00090E087599D4DE817F90709F045C0E9E61E
:102CB000F2E2DC0112978C9180938A22808DE80FDA
:102CC000F11D319780818093892280918922909192
:102CD0008A226817790711F1ADB7BEB71897ADBF53
:102CE000BEBFEDB7FEB731968E010F5F1F4F119635
:102CF0000D931C93129725E630E22283338384835D
:102D00009583668377837FD52DB73EB7285F3F4F86
:102D10002DBF3EBF83EB91E2B80150DA10928D22B5
:102D200010928E2209E612E2C80130DEC80182D27A
:102D300010928B2210928C22CC59DF4FCDBFDEBF78
:102D4000CF91DF911F910F910895DC0158966C91FE
:102D5000589770E062507040161617067CF4982F52
:102D6000EA2FFB2F20E030E08191280F311D4E2FFC
:102D7000491B50E046175707BCF302C020E030E083
:102D800090962D933C93919708950F931F93CF9313
:102D9000DF93EC018D89809588838F89982F955FCB
:102DA000988F909599839DEF9A839C8D90959B83A6
:102DB0009B8D90959C839A8D90959D839F8D9095EA
:102DC0009E839E8D90959F839D8D909598878E0173
:102DD000075F1F4F882379F0F80180E0DE01A80F1C
:102DE000B11D50969C915097909591938F018F5F54
:102DF0009F89891798F3CE01A8DF89A1F801808304
:102E000088A18183DF91CF911F910F910895CF9376
:102E1000DF93EC01BADFCE0157D0DF91CF91089557
:102E20000F931F93DF93CF93CDB7DEB7E297CDBF5C
:102E3000DEBF2DB73EB72C5030402DBF3EBFEDB7A3
:102E4000FEB731968E010F5F1F4FADB7BEB711961B
:102E50000D931C93129727E830E222833383DB0122
:102E60009C919483158211969C9111979683178259
:102E700012969C919087118682871386C4D42DB7B1
:102E80003EB7245F3F4F2DBF3EBF83EB91E2B801B9
:102E900095D987E591E2B80191D9E296CDBFDEBF21
:102EA000CF91DF911F910F910895809191228150D0
:102EB00080939122882329F48091922281508093DB
:102EC00092220895D6CD0895BC01FC01408D409317
:102ED0009122809192228F5F809392228DE891E2DD
:102EE00050E018C90F931F93CF93DF93EC01F89430
:102EF000BC01FC018491882361F003EB11E221966F
:102F0000FB016491C80166D9BE01FE01849188234A
:102F1000B1F77894DF91CF911F910F9108956F923F
:102F20007F928F929F92BF92CF92DF92EF92FF9209
:102F30000F931F93DF93CF93CDB7DEB7C456D04026
:102F4000CDBFDEBF7C018C0183EB91E26FE970E2C3
:102F500035D9D70158967C9158977723A1F1DE2C6B
:102F6000EE2DFF2DCC24CE0101962DE731E2BB24BE
:102F70006894B5F861918F013C016C0C711C462F6F
:102F800042954F704901840E911CD4014C91D3019C
:102F90004C934C2D4F5F3C01640E711C6F70A90166
:102FA000460F511DDA014C91D3014C934C2D4E5FCD
:102FB000DC01A40FB11DBC92B3E0CB0E4E2F4D1916
:102FC0004717C0F201C0CC24BE016F5F7F4FFB01E9
:102FD000EC0DF11D8DE08083C394FB01EC0DF11D20
:102FE0008AE08083C394FB01EC0DF11D10820F2E4B
:102FF000F3EBCF2EF1E2DF2EF02DC601DFD8C601B4
:1030000062EB70E2DBD8F801E082D70158966C9150
:103010005897662331F10E2DFE013196AE2DBF2D4E
:103020006D0150E08DE791E270E2D6014D916D01A6
:103030004095242F22952F704C01820E911CD401B3
:103040002C9120834F709C01240F311DD9012C91AC
:10305000218372835D5F33962C2D201B261728F366
:1030600001C050E0BE016F5F7F4FFB01E50FF11D16
:103070008DE080835F5FFB01E50FF11D8AE08083B7
:103080005F5FFB01E50FF11D108283EB91E296D8A3
:10309000CC59DF4FCDBFDEBFCF91DF911F910F9194
:1030A000FF90EF90DF90CF90BF909F908F907F9098
:1030B0006F9008950F931F93DF93CF93CDB7DEB733
:1030C000A897CDBFDEBF6EA37FA388A783E090E063
:1030D0008E8B9F8BDE019396E2E1F2E283E001901A
:1030E0000D928150E1F7DE015B96FE01B39683E01D
:1030F00001900D928150E1F7DE015E96FE01B696D9
:1031000083E001900D928150E1F7FA018481898B6F
:10311000908581859A8B8B8B8FEF8C8B84E0888F49
:103120008E010F5F1F4FC80172DE8DE192E0DADE83
:10313000C801F5DEA896CDBFDEBFCF91DF911F910C
:103140000F91089526E0209393248FE08093942498
:103150009DE0909395242093DB248093DC2424E34A
:103160002093DD2425E52093232580932425909327
:10317000252508950F931F93DF93CF93CDB7DEB727
:10318000A897CDBFDEBF6EA37FA388A7198E4E8BF5
:103190005F8BDE015E96FE01B69683E001900D9294
:1031A0008150E1F7DE019396E5E1F2E283E00190E0
:1031B0000D928150E1F7DE015B96FE01B39683E04C
:1031C00001900D928150E1F7188E4532510531F092
:1031D0004732510519F04F32510519F4298B81E01E
:1031E000888F8E010F5F1F4FC80111DEC80197DE67
:1031F000A896CDBFDEBFCF91DF911F910F910895AB
:10320000DF93CF9300D0CDB7DEB769837A838B830A
:103210004CE050E020E0AEDF80916B27816080932E
:103220006B278CEE92E05EDE2396CDBFDEBFCF91A2
:10323000DF910895AF92BF92CF92DF92EF92FF920B
:103240000F931F93DF93CF93CDB7DEB7C058D04015
:10325000CDBFDEBF8C01DC015A964C915A97E3E951
:10326000F4E280E090E0EE24FF242081241729F589
:103270003181D8015B962C915B973217F1F4328142
:103280005C962C915C973217C1F49C01220F331F7E
:10329000220F331F220F331F7901EE0CFF1CEE0C9F
:1032A000FF1CEE0CFF1C2E0D3F1D0F2EF3E9EF2E21
:1032B000F4E2FF2EF02DE20EF31E0196E85BFF4FC5
:1032C0008330910591F6E114F10421F48BE893E049
:1032D00009DE1DC2F801858996898233910509F4BA
:1032E00092C08333910558F48F309105A1F1813359
:1032F0009105A9F18D30910509F006C215C08533FD
:10330000910509F41BC18633910528F48333910597
:1033100009F0FAC1BEC08733910509F46BC18F3340
:10332000910509F0F1C1ABC185E492E0DBDDD80184
:1033300050968D919C915197F701818B928B52966B
:103340008C915297838B53969C91948BB801665EB7
:103350007F4F66DDDCC18BE592E0C4DDD8C1D801CA
:1033600052968D919C915397F7018787908B509639
:103370008D919C915197858796878FE692E0B2DD7B
:103380008DB79EB70E978DBF9EBFEDB7FEB7319636
:103390006E010894C11CD11CADB7BEB71196CD9279
:1033A000DC9212978DEC90E282839383D8015A9637
:1033B0008C915A97848315825B968C915B97868358
:1033C00017825C968C9180871186D7011D968D910E
:1033D0009C911E97828793871F968D919C91509701
:1033E0008487958710D2EDB7FEB73E96EDBFFEBF3E
:1033F00083EB91E2B6010E94DE1087E591E2B6010F
:103400000E94DE1084C1D80150968C91F701838709
:10341000148683E892E066DD8DB79EB70C978DBF6A
:103420009EBFEDB7FEB731966E010894C11CD11C4A
:10343000ADB7BEB71196CD92DC92129783EE90E2B3
:1034400082839383D8015A968C915A9784831582EC
:103450005B968C915B97868317825C968C918087B4
:103460001186D7011B968D919C911C97828793871B
:10347000CAD1EDB7FEB73C96EDBFFEBF83EB91E23C
:10348000B6010E94DE1087E591E2B6010E94DE10CF
:103490003EC1D80150968C915097F701858B51967B
:1034A0008C915197868B52968C91878B8AE992E00A
:1034B00019DD8DB79EB740978DBF9EBFEDB7FEB7A4
:1034C00031966E010894C11CD11CADB7BEB71196E0
:1034D000CD92DC92129789EF90E282839383D80198
:1034E0005A968C915A97848315825B968C915B9740
:1034F000868317825C968C9180871186D7015596BA
:103500008C9155978287138656968C91569784870F
:10351000158657968C918687178675D1EDB7FEB7BD
:103520007096EDBFFEBF83EB91E2B6010E94DE1004
:1035300087E591E2B6010E94DE10E9C0D8015096FD
:10354000AC905097BB24C501880F991F8A0D9B1D15
:10355000E80EF91E51968D919C915297F701808F3C
:10356000918F53968C91828F85E492E0BBDC8DB76E
:103570009EB740978DBF9EBFEDB7FEB731966E01E7
:103580000894C11CD11CADB7BEB71196CD92DC9288
:10359000129789EF90E282839383D8015A968C9197
:1035A0005A97848315825B968C915B9786831782EA
:1035B0005C968C9180871186A286B386D701589637
:1035C0008D919C915997848795875A968C9186877F
:1035D000178619D1EDB7FEB77096EDBFFEBF83EB2E
:1035E00091E2B6010E94DE1087E591E2B6010E94E9
:1035F000DE108DC085EC92E075DC8DB79EB74097EC
:103600008DBF9EBFEDB7FEB731967E010894E11CD9
:10361000F11CADB7BEB71196ED92FC92129785E101
:1036200091E282839383D8015A968C915A9784832E
:1036300015825B968C915B97868317825C968C9142
:103640005C97808711861286138650968C915097CE
:103650008487158654968C9186871786D4D0EDB7CB
:10366000FEB77096EDBFFEBF83EB91E2B7010E94FB
:10367000DE1087E591E2B7010E94DE1048C085EDBB
:1036800092E030DC8DB79EB740978DBF9EBFEDB7FF
:10369000FEB731967E010894E11CF11CADB7BEB7B0
:1036A0001196ED92FC92129785E191E282839383C9
:1036B000D8015A968C915A97848315825B968C9187
:1036C0005B97868317825C968C915C9780871186C6
:1036D0001286138650968C91509784871586519642
:1036E0008C91868717868FD0EDB7FEB77096EDBFA9
:1036F000FEBF83EB91E2B7010E94DE1087E591E205
:10370000B7010E94DE1003C088EB93E0EBDBC058EA
:10371000DF4FCDBFDEBFCF91DF911F910F91FF90A3
:10372000EF90DF90CF90BF90AF9008950895DF9312
:10373000CF9300D0CDB7DEB7BE016F5F7F4FF3D818
:103740002396CDBFDEBFCF91DF910895A1E21A2E5F
:10375000AA1BBB1BFD010DC0AA1FBB1FEE1FFF1F35
:10376000A217B307E407F50720F0A21BB30BE40B85
:10377000F50B661F771F881F991F1A9469F76095CC
:103780007095809590959B01AC01BD01CF01089586
:10379000FC0188279927E89421912032E9F3293008
:1037A00010F02E30C8F32B3239F02D3231F46894FA
:1037B00003C021D0820F911D219120532A30C8F3DC
:1037C0001EF4909581959F4F0895FB01DC0104C084
:1037D0008D910190801921F441505040C8F7881B09
:1037E000990B0895FB01DC0102C001900D9241503C
:1037F0005040D8F708957AE0979F902D879F802DAD
:10380000910D112408950F931F93DF93CF93CDB79C
:10381000DEB72E97CDBFDEBF0E891F8986E08C8371
:1038200009831A838FEF9FE78D839E839E01265E17
:103830003F4FCE010196688D798DA9010DD0EF81A2
:10384000F885E00FF11F10822E96CDBFDEBFCF911D
:10385000DF911F910F9108952F923F924F925F92A7
:103860006F927F928F929F92AF92BF92CF92DF9290
:10387000EF92FF920F931F93DF93CF93CDB7DEB7F5
:103880002C97CDBFDEBF6C011B018A01FC011682A3
:103890001782838181FFC4C12E010894411C511CF1
:1038A000F6019381F10193FD859193FF81911F01B1
:1038B000882309F4B1C1853239F493FD859193FFD2
:1038C00081911F01853221F490E0B601D8D1E8CF73
:1038D000EE24FF2420E02032B0F48B3269F08C32E9
:1038E00028F4803251F0833271F40BC08D3239F0FC
:1038F000803349F421602CC02260246029C02860F4
:1039000027C0206125C027FD2CC0382F30533A3006
:1039100098F426FF08C08E2D880FE82EEE0CEE0CD2
:10392000E80EE30E15C08F2D880FF82EFF0CFF0C4C
:10393000F80EF30E20620CC08E3221F426FD6CC10D
:10394000206406C08C3611F4206802C0883649F421
:10395000F10193FD859193FF81911F01882309F067
:10396000BACF982F9554933018F09052933028F492
:103970000C5F1F4FFFE3F9830DC0833631F08337AF
:1039800071F0833509F05CC021C0F8018081898322
:103990000E5F1F4F420171E0A72EB12C15C062E0EF
:1039A000662E712C600E711EF8018080918026FFBA
:1039B00003C06E2D70E002C06FEF7FEFC4012C8753
:1039C00053D15C0183012C852F7716C052E0652E00
:1039D000712C600E711EF8018080918026FF03C05B
:1039E0006E2D70E002C06FEF7FEFC4012C8731D1E4
:1039F0005C012C852068830123FD1EC007C080E286
:103A000090E0B6012C873BD1FA942C858F2D90E065
:103A1000A816B906A0F310C0F40127FD859127FF71
:103A200081914F0190E0B6012C8729D12C85F110AE
:103A3000FA940894A108B108A114B10469F7E9C087
:103A4000843611F0893641F527FF08C0F8016081FE
:103A50007181828193810C5F1F4F09C0F8016081E1
:103A60007181882777FD8095982F0E5F1F4F4FE655
:103A7000B42EB22297FF09C09095809570956195FC
:103A80007F4F8F4F9F4FF0E8BF2AA2012AE030E01E
:103A900022D1782E741844C0853731F43FEEB32E0E
:103AA000B2222AE030E025C099EFB92EB2228F363B
:103AB000C1F0803720F4883509F0AEC00DC08037E2
:103AC00021F0883709F0A8C002C020E1B22AB4FE74
:103AD0000BC084E0B82A08C0B4FE09C0E6E0BE2AE4
:103AE00006C028E030E005C020E130E002C020E15F
:103AF00032E0B7FE08C0F801608171818281938154
:103B00000C5F1F4F07C0F8016081718180E090E079
:103B10000E5F1F4FA201DFD0782E7418FFE7BF227F
:103B2000B6FE0BC02EEFB2227E1438F4B4FE07C0EE
:103B3000B2FC05C08FEEB82202C0A72C01C0AE2C8B
:103B40008B2D90E0B4FE0DC0FE01E70DF11D20812C
:103B5000203319F4E9EEBE2209C0A394B2FE06C0D8
:103B600004C086789070009709F0A3948B2C992458
:103B7000B3FC13C0B0FE0EC0AF1428F4E72CEF0C5A
:103B8000EA18AF2C07C0E72C05C080E290E0B60130
:103B900076D0A394AF14C8F304C0AF1410F4FA188D
:103BA00001C0FF2484FE0EC080E390E0B60167D020
:103BB00082FE1DC081FE03C088E590E010C088E74A
:103BC00090E00DC0C40186789070009781F081FC70
:103BD00002C080E201C08BE2B7FC8DE290E0B6014A
:103BE0004ED005C080E390E0B60149D0EA947E143F
:103BF000C8F37A94F201E70DF11D808190E0B601DF
:103C00003ED07720B1F705C080E290E0B60137D012
:103C1000FA94FF20C9F744CEF6012681378102C00D
:103C20002FEF3FEFC9012C96CDBFDEBFCF91DF91C3
:103C30001F910F91FF90EF90DF90CF90BF90AF90CA
:103C40009F908F907F906F905F904F903F902F90BC
:103C50000895FC010590615070400110D8F78095DF
:103C600090958E0F9F1F0895FC0161507040019048
:103C70000110D8F7809590958E0F9F1F08950F9390
:103C80001F93CF93DF938C01EB018B8181FF1BC0CE
:103C900082FF0DC02E813F818C819D8128173907BD
:103CA00064F4E881F9810193E883F98306C0E8852B
:103CB000F985802F1995009731F48E819F810196A7
:103CC0008E839F8302C00FEF1FEFC801DF91CF915A
:103CD0001F910F910895FA01AA27283051F1203140
:103CE00081F1E8946F936E7F6E5F7F4F8F4F9F4F90
:103CF000AF4FB1E03ED0B4E03CD0670F781F891FD2
:103D00009A1FA11D680F791F8A1F911DA11D6A0F9F
:103D1000711D811D911DA11D20D009F468943F9152
:103D20002AE0269F11243019305D3193DEF6CF0151
:103D30000895462F4770405D4193B3E00FD0C9F717
:103D4000F6CF462F4F70405D4A3318F0495D31FD84
:103D50004052419302D0A9F7EACFB4E0A6959795D7
:103D6000879577956795BA95C9F7009761057105AD
:103D700008959B01AC010A2E0694579547953795F7
:103D80002795BA95C9F7620F731F841F951FA01D51
:063D90000895F894FFCF36
:103D96003C696E636F6D696E67207061636B6574F5
:103DA6003A3E00496E636F6D696E67205061636BC2
:103DB6006574206F7574206F662073697A65206F4D
:103DC6007574206F662052616E67650D0A00496E34
:103DD600636F6D696E67205061636B6574206469FB
:103DE60072656374696F6E20697320696E76616CA3
:103DF60069640D0A00436865636B73756D206469B9
:103E060064206E6F74206D617463682025692021BB
:103E16003D2025690D0A004F4B2025692025692084
:103E26002569204C4556454C202569200D0A003C45
:103E36006F7574676F696E67207061636B65743A3E
:103E46003E003C6F7574676F696E67207061636BC7
:103E560065743A696E7665727465643E004C494DC8
:103E66004954532025692025692025692025692084
:103E7600256900444952454354494F4E202569203F
:103E8600256920256920256900444952454354493E
:103E96004F4E202569202569202569202569202582
:103EA6006920256900445259434F4E5441435453A7
:103EB6002025692025692025692025692025692076
:103EC600256900A0080000B0080100A0090200B0A2
:103ED600090300E801EE01F301F601FB012D14E1EF
:103EE60013941349139214A00980250000030000BF
:103EF600000000016C14EB2500008000000000802B
:103F06000000006B25000000006D14800030313287
:103F160033343536373839414243444546A008C024
:103F2600120000030030000110005517EB260000B8
:103F36008000000000800000006B26000000006288
:103F4600178000B00800C201000300000000000056
:103F560055179322000000000000000001000093A6
:103F6600230000000062170001B009C01200000320
:103F7600003000000000961BEC27000080000000C7
:103F860000800000006C2700000000971B800006E0
:103F96000F0D3031323334353637383941424344E8
:083FA600454633FFFF33FFFF26
:00000001FF
